:1000000009C050C14FC14EC14DC14CC14CC14AC1C4
:1000100049C148C111241FBECFE9CDBF10E0A0E601
:10002000B0E0E0E5F3E002C005900D92A236B10722
:10003000D9F720E0A2E6B0E001C01D92A238B207D5
:10004000E1F701D083C187B38D6187BB88B3827E1E
:1000500088BBC19A83B7856083BF8FB582608FBD2F
:1000600089B7846089BF8BE086BF789481E09091E6
:100070007D00911102C080937D00F8944091790039
:1000800050917A0060917B0070917C0040936400F5
:100090005093650060936600709367007894409178
:1000A000640050916500609166007091670049306E
:1000B000510561057105F8F0F894109279001092DD
:1000C0007A0010927B0010927C007894B19950C015
:1000D0008093740020916200309163002D313105CE
:1000E00008F43FC01092630010926200909160008B
:1000F000982790936000F894409175005091760095
:10010000609177007091780040936B0050936C0081
:1001100060936D0070936E00789440916B005091E5
:100120006C0060916D0070916E0049305105610561
:10013000710580F1F894109275001092760010927B
:10014000770010927800789420916F0090916A0067
:100150002223A9F091111EC080936A0098B3937F67
:1001600018C02F5F3F4F3093630020936200C3CFCE
:10017000109263001092620010927400BCCF209124
:100180006000211116C0992339F310926A0098B3C8
:100190009C6098BB9091610091112AC09091600081
:1001A000911126C090917400992311F18093610000
:1001B0005ECF20916800309169002431310558F0FC
:1001C00010926900109268009111E4CFC298C39A0E
:1001D00080936A00DFCF2F5F3F4F309369002093F9
:1001E00068009923B9F2C29AC39810926A00D2CFDC
:1001F00090916100992321F09091600091113CC091
:1002000090916100992309F432CF9091600091118F
:100210002ECFF89440917E0050917F006091800035
:100220007091810040937000509371006093720050
:1002300070937300789440917000509171006091B8
:100240007200709173004F3851406105710508F1DB
:10025000F89410927E0010927F001092800010920D
:10026000810078941092610090916F009111FFCEFF
:1002700080936F00C49AFBCEF89410927E00109287
:100280007F0010928000109281007894109261009B
:10029000EECE90916F00992309F4E9CE10926F0091
:1002A000C498E5CEADCE1F920F920FB60F921124D7
:1002B0008F939F93AF93BF9380916100882399F0B0
:1002C00080917E0090917F00A0918000B09181008C
:1002D0000196A11DB11D80937E0090937F00A09395
:1002E0008000B093810080917D00882399F08091F7
:1002F000790090917A00A0917B00B0917C000196EA
:10030000A11DB11D8093790090937A00A0937B008A
:10031000B0937C008091750090917600A091770059
:10032000B09178000196A11DB11D80937500909346
:100330007600A0937700B0937800BF91AF919F9122
:100340008F910F900FBE0F901F901895F894FFCFCC
:020350000101A9
:00000001FF
