:1000000009C021C020C01FC01EC01DC01DC01BC014
:100010001AC019C011241FBECFE9CDBF10E0A0E661
:10002000B0E0E2E6F3E002C005900D92A236B1071F
:10003000D9F720E0A2E6B0E001C01D92A238B207D5
:10004000E1F788D18CC1DCCF1F920F920FB60F92CF
:1000500011248F939F93AF93BF9380916000882367
:1000600099F08091760090917700A0917800B091FE
:1000700079000196A11DB11D8093760090937700C1
:10008000A0937800B093790080918000882399F044
:1000900080916E0090916F00A0917000B0917100FE
:1000A0000196A11DB11D80936E0090936F00A093E7
:1000B0007000B09371008091660090916700A091EC
:1000C0006800B09169000196A11DB11D8093660082
:1000D00090936700A0936800B0936900BF91AF91BF
:1000E0009F918F910F900FBE0F901F90189587B31F
:1000F0008D6187BB88B3827E88BBC19A83B78560D8
:1001000083BF8FB582608FBD89B7846089BF8BE064
:1001100086BF789408958091600081110CC0809111
:100120006100811108C080918100882321F081E065
:1001300080936000089580916000882321F0809171
:100140006100811105C08091600081110EC0089589
:10015000F894109276001092770010927800109226
:100160007900789410926000089580916100811167
:100170003BC0F8948091760090917700A091780030
:10018000B09179008093720090937300A0937400F3
:10019000B093750078948091720090917300A09153
:1001A0007400B09175008F389140A105B105A8F099
:1001B000F8941092760010927700109278001092C6
:1001C000790078941092600080917B0081110CC0BE
:1001D00081E080937B00C49A089580917B008823FE
:1001E00019F010927B00C4980895809180008111CD
:1001F00003C081E080938000F89480916E0090911C
:100200006F00A0917000B091710080936A0090938C
:100210006B00A0936C00B0936D00789480916A009D
:1002200090916B00A0916C00B0916D000997A105B1
:10023000B10560F1F89410926E0010926F00109268
:100240007000109271007894B1991AC021E0209347
:10025000810080917E0090917F008D31910550F05A
:1002600010927F0010927E0080916100822780931F
:1002700061000895019690937F0080937E00089519
:1002800010927F0010927E00109281000895F894E1
:100290008091660090916700A0916800B09169001C
:1002A0008093620090936300A0936400B093650014
:1002B00078948091620090916300A0916400B09165
:1002C00065000997A105B10508F443C0F8941092A0
:1002D000660010926700109268001092690078948E
:1002E00090917B0080917A00992341F0811131C077
:1002F00081E080937A0088B3837F0AC09091610087
:10030000911108C08823A1F310927A0088B38C6001
:1003100088BB089520917C0030917D002431310507
:1003200060F010927D0010927C00811112C0C29882
:10033000C39A81E080937A0008952F5F3F4F3093F6
:100340007D0020937C00882321F0C29AC3981092EC
:100350007A000895CCDE49DF9ADFDDDEFCCFF89429
:02036000FFCFCD
:02036200010197
:00000001FF
